:020000040800F2
:1000000000500020011D00085D0B00085F0B000878
:10001000610B0008630B0008650B0008000000007E
:10002000000000000000000000000000670B000856
:10003000690B0008000000006B0B00086D0B000846
:10004000491D0008491D0008491D0008491D0008F8
:10005000491D0008491D0008491D0008491D0008E8
:10006000491D0008491D0008491D0008491D0008D8
:10007000491D0008491D0008491D0008491D0008C8
:10008000491D0008491D0008491D0008491D0008B8
:10009000491D0008491D0008491D0008491D0008A8
:1000A000491D0008491D0008491D0008491D000898
:1000B000491D0008491D0008491D0008491D000888
:1000C000491D0008491D0008491D0008491D000878
:1000D000491D0008491D0008491D0008491D000868
:1000E000491D0008491D0008491D000800000000C6
:1000F0000000000000000000000000000000000000
:0C01000000000000000000005FF808F1A3
:1001100010B5054C237833B9044B13B10448AFF341
:1001200000800123237010BD0C000020000000009F
:10013000A41D000808B5034B1BB103490348AFF3E6
:10014000008008BD0000000010000020A41D000871
:1001500081F0004102E000BF83F0004330B54FEA78
:1001600041044FEA430594EA050F08BF90EA020FE5
:100170001FBF54EA000C55EA020C7FEA645C7FEA78
:10018000655C00F0E2804FEA5454D4EB5555B8BF9B
:100190006D420CDD2C4480EA020281EA030382EA0C
:1001A000000083EA010180EA020281EA0303362D9E
:1001B00088BF30BD11F0004F4FEA01314FF4801C71
:1001C0004CEA113102D0404261EB410113F0004F83
:1001D0004FEA03334CEA133302D0524263EB43033A
:1001E00094EA050F00F0A780A4F10104D5F1200ED8
:1001F0000DDB02FA0EFC22FA05F2801841F1000133
:1002000003FA0EF2801843FA05F359410EE0A5F106
:1002100020050EF1200E012A03FA0EFC28BF4CF037
:10022000020C43FA05F3C01851EBE37101F00045ED
:1002300007D54FF0000EDCF1000C7EEB00006EEBFA
:100240000101B1F5801F1BD3B1F5001F0CD3490884
:100250005FEA30004FEA3C0C04F101044FEA4452DB
:1002600012F5800F80F09A80BCF1004F08BF5FEA62
:10027000500C50F1000041EB045141EA050130BD42
:100280005FEA4C0C404141EB0101013C28BFB1F554
:10029000801FE9D291F0000F04BF01460020B1FA9F
:1002A00081F308BF2033A3F10B03B3F120020CDA72
:1002B0000C3208DD02F1140CC2F10C0201FA0CF050
:1002C00021FA02F10CE002F11402D8BFC2F1200CB5
:1002D00001FA02F120FA0CFCDCBF41EA0C0190406B
:1002E000E41AA2BF01EB0451294330BD6FEA0404B4
:1002F0001F3C1CDA0C340EDC04F11404C4F120029F
:1003000020FA04F001FA02F340EA030021FA04F3B0
:1003100045EA030130BDC4F10C04C4F1200220FA07
:1003200002F001FA04F340EA0300294630BD21FA45
:1003300004F0294630BD94F0000F83F4801306BF0B
:1003400081F480110134013D4EE77FEA645C18BFFF
:100350007FEA655C29D094EA050F08BF90EA020F96
:1003600005D054EA000C04BF1946104630BD91EA8E
:10037000030F1EBF0021002030BD5FEA545C05D191
:100380004000494128BF41F0004130BD14F58004D0
:100390003CBF01F5801130BD01F0004545F0FE4144
:1003A00041F470014FF0000030BD7FEA645C1ABF79
:1003B000194610467FEA655C1CBF0B46024650EAB0
:1003C000013406BF52EA033591EA030F41F40021DC
:1003D00030BD00BF90F0000F04BF0021704730B562
:1003E0004FF4806404F132044FF000054FF0000137
:1003F00050E700BF90F0000F04BF0021704730B5F8
:100400004FF4806404F1320410F0004548BF4042CC
:100410004FF000013EE700BF42004FEAE2014FEA21
:1004200031014FEA02701FBF12F07F4393F07F4FFC
:1004300081F06051704732F07F4208BF704793F0FF
:100440007F4F04BF41F40021704730B54FF4607412
:1004500001F0004521F000411CE700BF50EA010215
:1004600008BF704730B54FF000050AE050EA0102BE
:1004700008BF704730B511F0004502D5404261EB2E
:1004800041014FF4806404F132045FEA915C3FF46F
:10049000D8AE4FF003025FEADC0C18BF03325FEA0C
:1004A000DC0C18BF033202EBDC02C2F1200300FABD
:1004B00003FC20FA02F001FA03FE40EA0E0021FAE2
:1004C00002F11444BDE600BF70B54FF0FF0C4CF4D0
:1004D000E06C1CEA11541DBF1CEA135594EA0C0F82
:1004E00095EA0C0F00F0DEF82C4481EA030621EABD
:1004F0004C5123EA4C5350EA013518BF52EA0335F8
:1005000041F4801143F4801338D0A0FB02CE4FF0A9
:100510000005E1FB02E506F00042E0FB03E54FF0D9
:100520000006E1FB03569CF0000F18BF4EF0010ED1
:10053000A4F1FF04B6F5007F64F5407404D25FEACD
:100540004E0E6D4146EB060642EAC62141EA555180
:100550004FEAC52040EA5E504FEACE2EB4F1FD0CC2
:1005600088BFBCF5E06F1ED8BEF1004F08BF5FEA40
:10057000500E50F1000041EB045170BD06F00046F2
:1005800046EA010140EA020081EA0301B4EB5C049F
:10059000C2BFD4EB0C0541EA045170BD41F4801197
:1005A0004FF0000E013C00F3AB8014F1360FDEBFBC
:1005B000002001F0004170BDC4F10004203C35DA98
:1005C0000C341BDC04F11404C4F1200500FA05F31B
:1005D00020FA04F001FA05F240EA020001F00042BC
:1005E00021F0004110EBD37021FA04F642EB060132
:1005F0005EEA430E08BF20EAD37070BDC4F10C045C
:10060000C4F1200500FA04F320FA05F001FA04F21F
:1006100040EA020001F0004110EBD37041F100010B
:100620005EEA430E08BF20EAD37070BDC4F1200516
:1006300000FA05F24EEA020E20FA04F301FA05F27E
:1006400043EA020321FA04F001F0004121FA04F226
:1006500020EA020000EBD3705EEA430E08BF20EAF6
:10066000D37070BD94F0000F0FD101F00046400030
:1006700041EB010111F4801F08BF013CF7D041EAB2
:10068000060195F0000F18BF704703F000465200B6
:1006900043EB030313F4801F08BF013DF7D043EA87
:1006A0000603704794EA0C0F0CEA135518BF95EA3D
:1006B0000C0F0CD050EA410618BF52EA4306D1D1C4
:1006C00081EA030101F000414FF0000070BD50EAE3
:1006D000410606BF1046194652EA430619D094EA6D
:1006E0000C0F02D150EA013613D195EA0C0F05D157
:1006F00052EA03361CBF104619460AD181EA0301AB
:1007000001F0004141F0FE4141F470014FF0000062
:1007100070BD41F0FE4141F4780170BD70B54FF0FD
:10072000FF0C4CF4E06C1CEA11541DBF1CEA13557D
:1007300094EA0C0F95EA0C0F00F0A7F8A4EB05045F
:1007400081EA030E52EA03354FEA013100F0888056
:100750004FEA03334FF0805545EA131343EA12631F
:100760004FEA022245EA111545EA10654FEA0026D4
:100770000EF000419D4208BF964244F1FD0404F58D
:10078000407402D25B084FEA3202B61A65EB0305E9
:100790005B084FEA32024FF480104FF4002CB6EBA6
:1007A000020E75EB030E22BFB61A754640EA0C0026
:1007B0005B084FEA3202B6EB020E75EB030E22BF66
:1007C000B61A754640EA5C005B084FEA3202B6EBA7
:1007D000020E75EB030E22BFB61A754640EA9C0066
:1007E0005B084FEA3202B6EB020E75EB030E22BF36
:1007F000B61A754640EADC0055EA060E18D04FEAF4
:10080000051545EA16754FEA06164FEAC30343EA93
:1008100052734FEAC2025FEA1C1CC0D111F4801F60
:100820000BD141EA00014FF000004FF0004CB6E759
:1008300011F4801F04BF01430020B4F1FD0C88BFF8
:10084000BCF5E06F3FF6AFAEB5EB030C04BFB6EB03
:10085000020C5FEA500C50F1000041EB045170BDF6
:100860000EF0004E4EEA113114EB5C04C2BFD4EB23
:100870000C0541EA045170BD41F480114FF0000EA7
:10088000013C90E645EA060E8DE60CEA135594EA23
:100890000C0F08BF95EA0C0F3FF43BAF94EA0C0F26
:1008A0000AD150EA01347FF434AF95EA0C0F7FF49B
:1008B00025AF104619462CE795EA0C0F06D152EAEF
:1008C00003353FF4FDAE1046194622E750EA4106D3
:1008D00018BF52EA43067FF4C5AE50EA41047FF4E4
:1008E0000DAF52EA43057FF4EBAE12E74FEA410247
:1008F000B2F1E04324BFB3F5001CDCF1FE5C0DD97E
:1009000001F0004C4FEAC0024CEA5070B2F1004FC7
:1009100040EB830008BF20F00100704711F0804FCA
:1009200021D113F13872BCBF01F00040704741F48F
:1009300080114FEA5252C2F11802C2F1200C10FA93
:100940000CF320FA02F018BF40F001004FEAC12377
:100950004FEAD32303FA0CFC40EA0C0023FA02F31B
:100960004FEA4303CCE77FEA625307D150EA0133F1
:100970001EBF4FF0FE4040F44000704701F00040C1
:1009800040F0FE4040F40000704700BF72B6FEE742
:1009900000B591B02822002106A801F0FBF9002340
:1009A00001930293039304930593012206924FF45B
:1009B000803307930A9202220D920E934FF4E013B4
:1009C0000F9306A800F06CF988B90F230193022158
:1009D0000291802303934FF48063049300230593D3
:1009E00001A800F08FFB20B911B05DF804FBFFF700
:1009F000CDFFFFF7CBFF000008B500F003F9FFF7CC
:100A0000C7FF00F051F800F0ABFD01F003F9C8207A
:100A100000F01CF901F0DAF8C82000F017F90623FD
:100A200001220021084601F015F9C82000F00EF956
:100A300001F03CF9184B1860FFF7CCFC0022174B73
:100A4000FFF78AFB00224FF07A53FFF73DFD0CA31E
:100A5000D3E90023FFF738FD0022114BFFF734FDE7
:100A600009A3D3E90023FFF759FE09A3D3E9002323
:100A7000FFF772FBFFF73AFF0A4B1860C5E700BFAC
:100A8000B81E85EB51B8F23FEC51B81E85EBE93F3B
:100A900000000000001071402800002000006041AC
:100AA00000408F402C000020F0B589B00024049451
:100AB000059406940794264B9A6942F010029A61B5
:100AC0009A6902F010020092009A9A6942F020029C
:100AD0009A619A6902F020020192019A9A6942F0A1
:100AE00008029A619A6902F008020292029A9A69CF
:100AF00042F004029A619B6903F004030393039B91
:100B0000144F01224FF40051384600F0C3FC124D3F
:100B100022464FF48051284600F0BCFC4FF40053AD
:100B200004930126059606940223079304A93846E8
:100B300000F09EFB4FF48053049305960694032324
:100B4000079304A9284600F093FB09B0F0BD00BF4D
:100B50000010024000100140000C0140FEE7FEE7DB
:100B6000FEE7FEE7FEE770477047704708B500F004
:100B70005BF808BD82B00E4B9A6942F001029A619F
:100B80009A6902F001020092009ADA6942F08052FA
:100B9000DA61DB6903F080530193019B054A5368D6
:100BA00023F0E06343F00073536002B0704700BF6E
:100BB000001002400000014010B504460E4B1878AA
:100BC0004FF47A73B3FBF0F30C4A1068B0FBF3F008
:100BD00000F0B0FC68B90F2C01D901200AE0002216
:100BE00021464FF0FF3000F06DFC054B1C600020EB
:100BF00000E0012010BD00BF000000200800002020
:100C00000400002008B5074A136843F0100313607E
:100C1000032000F045FC0F20FFF7CEFFFFF7AAFFEF
:100C2000002008BD00200240034A1168034B1B78D6
:100C30000B441360704700BF30000020000000200C
:100C4000014B1868704700BF3000002038B50446DB
:100C5000FFF7F6FF0546B4F1FF3F02D0044B1B78C7
:100C60001C44FFF7EDFF401BA042FAD338BD00BF84
:100C70000000002082B0084B1B68084AA2FB032337
:100C80005B0A00FB03F3019300BF019B5A1E019214
:100C9000002BF9D102B0704708000020D34D62103C
:100CA000002800F0F18170B582B00446036813F0AB
:100CB000010F2CD0994B5B6803F00C03042B1DD063
:100CC000964B5B6803F00C03082B12D06368B3F5F6
:100CD000803F41D0002B55D103F1804303F504330D
:100CE0001A6822F480321A601A6822F480221A608C
:100CF00037E08A4B5B6813F4803FE7D0874B1B6873
:100D000013F4003F03D06368002B00F0BF81236819
:100D100013F0020F75D0814B5B6813F00C0F5FD09E
:100D20007E4B5B6803F00C03082B54D02369002B27
:100D300000F08A807A4B01221A60FFF781FF054696
:100D4000764B1B6813F0020F75D1FFF779FF401B3C
:100D50000228F5D903209EE1704A136843F48033DA
:100D60001360636843B3FFF76BFF05466B4B1B686B
:100D700013F4003FCBD1FFF763FF401B6428F5D984
:100D8000032088E1B3F5A02F09D0644B1A6822F440
:100D900080321A601A6822F480221A60E1E703F1B7
:100DA0008043A3F53C331A6842F480221A601A6823
:100DB00042F480321A60D4E7FFF742FF0546574BF2
:100DC0001B6813F4003FA2D0FFF73AFF401B6428D2
:100DD000F5D903205FE1514B5B6813F4803FA5D147
:100DE0004E4B1B6813F0020F03D02369012B40F018
:100DF0004F814A4A136823F0F803616943EAC1034B
:100E00001360236813F0080F33D0A369002B5CD064
:100E1000434B0122C3F88024FFF712FF05463F4BE6
:100E20005B6A13F0020F21D1FFF70AFF401B022873
:100E3000F5D903202FE1394A136823F0F8036169DB
:100E400043EAC1031360DCE7354B00221A60FFF769
:100E5000F7FE0546314B1B6813F0020FD1D0FFF7A8
:100E6000EFFE401B0228F5D9032014E10120FFF713
:100E700001FF236813F0040F00F09680274BDB6915
:100E800013F0805F34D1254BDA6942F08052DA6189
:100E9000DB6903F080530193019B0125214B1B6803
:100EA00013F4807F26D0E368012B3DD0002B53D173
:100EB00003F1804303F504331A6A22F001021A6237
:100EC0001A6A22F004021A6233E0154B0022C3F8BA
:100ED0008024FFF7B5FE0546104B5B6A13F0020F46
:100EE000C7D0FFF7ADFE401B0228F5D90320D2E0A2
:100EF0000025D3E70B4A136843F480731360FFF7B0
:100F00009FFE0646074B1B6813F4807FCBD1FFF78B
:100F100097FE801B6428F5D90320BCE00010024036
:100F200000004242007000405F4A136A43F0010330
:100F30001362E36833B3FFF783FE06465A4B1B6A1E
:100F400013F0020F2FD1FFF77BFE801B41F2883395
:100F50009842F3D903209EE0052B09D0524B1A6A20
:100F600022F001021A621A6A22F004021A62E0E711
:100F70004D4B1A6A42F004021A621A6A42F00102E8
:100F80001A62D6E7FFF75CFE0646474B1B6A13F072
:100F9000020F08D0FFF754FE801B41F288339842BD
:100FA000F3D9032077E0E5B9E369002B72D03E4A1C
:100FB000526802F00C02082A56D0022B17D03B4B85
:100FC00000221A66FFF73CFE0446374B1B6813F0FD
:100FD000007F47D0FFF734FE001B0228F5D903201D
:100FE00059E0314AD36923F08053D361DCE72F4BBA
:100FF00000221A66FFF724FE05462B4B1B6813F0F0
:10100000007F06D0FFF71CFE401B0228F5D9032005
:1010100041E0236AB3F5803F1AD023494B6823F49B
:101020007413226A606A024313434B601F4B012210
:101030001A66FFF705FE04461B4B1B6813F0007F82
:101040000ED1FFF7FDFD001B0228F5D9032022E099
:10105000154A536823F40033A1680B435360DCE75F
:10106000002018E0002016E0012B16D00E4B5B6824
:1010700003F48031226A914211D103F47013626A41
:1010800093420ED1002006E001207047012002E0CB
:10109000012000E0002002B070BD0120FBE701202C
:1010A000F9E70120F7E700BF0010024000004242CC
:1010B0000F4B5B6803F00C02082A01D00D48704703
:1010C000C3F383420C49885C13F4803F0BD0084B78
:1010D0005B68C3F34043094AD35C064A02FB00F055
:1010E000B0FBF3F07047064B03FB00F0704700BF06
:1010F0000010024000127A00C41D0008D41D000830
:1011000000093D00002800F0A08070B50D4604469F
:10111000524B1B6803F007038B420BD24F4A1368F4
:1011200023F007030B431360136803F007038B429C
:1011300040F08D80236813F0020F17D013F0040FD6
:1011400004D0474A536843F4E0635360236813F0C4
:10115000080F04D0424A536843F460535360404A36
:10116000536823F0F003A1680B435360236813F026
:10117000010F31D06368012B20D0022B25D0384AD3
:10118000126812F0020F64D035494A6822F0030257
:1011900013434B60FFF754FD0646314B5B6803F089
:1011A0000C036268B3EB820F16D0FFF749FD801B7A
:1011B00041F288339842F0D9032045E0284A12686A
:1011C00012F4003FE0D101203EE0254A126812F0FF
:1011D000007FD9D1012037E0204B1B6803F00703C3
:1011E000AB420AD91D4A136823F007032B4313604F
:1011F000136803F00703AB422DD1236813F0040FEB
:1012000006D0174A536823F4E063E1680B43536048
:10121000236813F0080F07D0114A536823F4605372
:10122000216943EAC1035360FFF742FF0C4B5B683F
:10123000C3F303130B4AD35CD8400B4B18600B4B22
:101240001868FFF7B9FC002070BD0120704701202D
:10125000FAE70120F8E70120F6E700BF002002408E
:1012600000100240D81D00080800002004000020E3
:1012700070B582B00024A446A6E0804DAA4210D0EA
:1012800007D97F4DAA420CD005F58035AA4208D077
:1012900013E0A5F58015AA4203D005F57025AA42F2
:1012A00007D18A68002A58D0012A51D04361082406
:1012B00003E0A5F58015AA42F3D0BEF1FF0F4ED88A
:1012C0000646BEF1FF0F4CD84FEA8C0233680F255B
:1012D000954023EA050304FA02F2134333604B6896
:1012E00013F0805F6ED0674B9A6942F001029A61F9
:1012F0009B6903F001030193019B4FEA9C02951C3B
:10130000614B53F825600CF003039D000F23AB40A5
:1013100026EA03065D4B984229D003F58063984284
:1013200000F08E8003F58063984200F08B8003F517
:101330008063984219D004231AE0CC68BDE7CC68DA
:101340000434BAE7CC680834B7E7CC680C34B4E7A7
:1013500003610824B1E70024AFE70424ADE7061DCC
:10136000AFE7ACF108029200B0E7032300E00023EE
:10137000AB4033430232444D45F822304B6813F4FE
:10138000801F61D0424A936843EA0E0393604B6822
:1013900013F4001F5ED03E4AD36843EA0E03D360C5
:1013A0004B6813F4003F5BD0394A536843EA0E039D
:1013B00053604B6813F4803F58D0354A136843EAB2
:1013C0000E0313600CF1010C0A6832FA0CF353D0CF
:1013D000012303FA0CF302EA030E33EA0202F1D10D
:1013E0004A68122A3FF649AF122A3FF666AF01A5B6
:1013F00055F822F0A31200083B130008451300081B
:1014000057130008BB120008BB120008BB120008EB
:10141000BB120008BB120008BB120008BB12000878
:10142000BB120008BB120008BB120008BB12000868
:10143000BB120008BB1200083F1300084B13000842
:10144000012395E7022393E7114A936823EA0E03E9
:1014500093609CE70E4AD36823EA0E03D3609FE7AC
:101460000B4A536823EA0E035360A2E7084A136845
:1014700023EA0E031360A5E702B070BD000022103E
:10148000000031100010024000000140000801403F
:10149000000401400AB1016170470904016170470D
:1014A000074AD36823F4E0631B041B0C000200F41A
:1014B000E060034343F0BF6343F40033D3607047FD
:1014C00000ED00E000B5194BDB68C3F30223C3F164
:1014D000070CBCF1040F28BF4FF0040C03F1040EFD
:1014E000BEF1060F18D9033B4FF0FF3E0EFA0CFC7D
:1014F00021EA0C0199400EFA03F322EA030319438F
:1015000000280BDB0901C9B200F1604000F5614021
:1015100080F800135DF804FB0023E5E700F00F00FE
:101520000901C9B2024B1954F4E700BF00ED00E015
:1015300014ED00E00138B0F1807F0BD24FF0E023D2
:101540005861054AF02182F8231000209861072293
:101550001A6170470120704700ED00E070470000FD
:1015600008B50F480F4B03604FF4827343600023AC
:101570008360C36002220261012242614FF4007263
:1015800082611022C2610362436283620A23C362E2
:1015900000F0C2F800B908BDFFF7F8F9FBE700BF9B
:1015A000340000200038004030B587B0002302939B
:1015B0000393049305930268174B9A4201D007B036
:1015C00030BD03F5EC33DA6942F48042DA61DA695E
:1015D00002F480420092009A9A6942F008029A61ED
:1015E0009B6903F008030193019B4FF4204302938E
:1015F0000223039301250595084C02A92046FFF715
:1016000037FE4FF48043029300230393049502A90D
:101610002046FFF72DFED2E700380040000C0140C5
:101620002DE9F04782B00546884617461E46FFF76B
:1016300007FB0A9B1B1A03EB0609FFF701FB824617
:101640002B4B1B68C3F3CB3309FB03F301932B68CC
:101650009C6838EA04030CBF4FF0010C4FF0000CFB
:10166000BC4540D0B6F1FF3FF1D0FFF7E9FAA0EB5F
:101670000A0048450AD2B9F1000F07D0019A02B119
:101680004A46019B013B01939146E0E72A68536873
:1016900023F0E00353606B68B3F5827F0BD0AB6A35
:1016A000B3F5005F14D0012385F85130002385F88D
:1016B0005030032018E0AB68B3F5004F02D0B3F50B
:1016C000806FECD12A68136823F040031360E6E7CB
:1016D0002A68136823F4005313602A68136843F4DC
:1016E00000531360DFE7002002B0BDE8F08700BFC1
:1016F0000800002010B582B004460B46009200227C
:101700008021FFF78DFF08B902B010BD636D43F073
:10171000200363650320F7E7002856D010B5044680
:10172000436A33B94368B3F5827F05D00023C361B0
:1017300002E00023036143610023A36294F8513067
:10174000002B3CD0022384F851302268136823F028
:1017500040031360636803F48273A26802F40442D6
:101760001343E26802F400621343226902F00202AA
:101770001343626902F001021343A26902F400728A
:101780001343E26902F038021343226A02F0800236
:101790001343A26A02F40052216813430B60638B67
:1017A000226803F0040353602268D36923F40063C2
:1017B000D36100206065012384F8513010BD84F8A6
:1017C00050302046FFF7F0FEBCE7012070472DE9BE
:1017D000F04383B01D4690F85030012B00F0D180CB
:1017E000044688469146012380F85030FFF728FAD6
:1017F000074694F85160F6B2012E40F0BA80B8F175
:10180000000F00F0B780B9F1000F00F0B3800323A0
:1018100084F8513000236365C4F83080A4F8349014
:10182000A4F83690A363A387E38763642364A36863
:10183000B3F5004F1ED023681A6812F0400F03D191
:101840001A6842F040021A60E368B3F5006F1CD0DA
:10185000636813B1B9F1010F55D1226B2368127877
:101860001A73236B01332363E38E9BB2013B9BB25C
:10187000E38648E02268136823F04003136022687F
:10188000136843F480431360D5E7636813B1B9F17B
:10189000010F15D1226B23681288DA60236B0233A3
:1018A0002363E38E9BB2013B9BB2E38608E0FFF724
:1018B000C7F9C01BA84202D3B5F1FF3F15D1A5B1AE
:1018C000E38E9BB2002B3CD023689A6812F0020F83
:1018D000EDD0226B1288DA60236B02332363E38E30
:1018E0009BB2013B9BB2E386EAE7012384F85130C7
:1018F00003263FE0FFF7A4F9C01BA84202D3B5F1CD
:10190000FF3F19D1C5B1E38E9BB2D3B123689A686A
:1019100012F0020FEED0226B12781A73236B013390
:101920002363B4F836C01FFA8CFC0CF1FF3C1FFA9D
:101930008CFCA4F836C0E6E7012384F85130032676
:1019400018E03A4629462046FFF7D4FE08B1202386
:101950006365A36833B901932368DA6801929B68D1
:101960000193019B636D2BB9012384F8513000264C
:1019700000E00226002384F85030304603B0BDE872
:10198000F0830226F9E72DE9F04383B01F460A9D54
:1019900090F85030012B00F016810446884691469D
:1019A000012380F85030FFF74BF9064694F8513088
:1019B000DBB26268012B0AD0B2F5827F40F0F08082
:1019C000A268002A40F0F380042B40F0F280B8F1C6
:1019D000000F00F0F080B9F1000F00F0EE80002F52
:1019E00000F0ED8094F85130DBB2042B02D00523D7
:1019F00084F8513000236365C4F83890E787A787DF
:101A0000C4F83080E786A7862364636423681A6875
:101A100012F0400F03D11A6842F040021A60E368E6
:101A2000B3F5006F11D063680BB1012F0BD1226B9E
:101A3000236812781A73236B01332363E38E9BB2FE
:101A4000013B9BB2E38601276EE063680BB1012F77
:101A50000BD1226B23681288DA60236B0233236375
:101A6000E38E9BB2013B9BB2E38601271BE0236818
:101A70009A6812F0010F0ED0E28F92B25AB1DA6872
:101A8000A36B1A80A36B0233A363E38F9BB2013B6A
:101A90009BB2E3870127FFF7D3F8801BA84202D34C
:101AA000B5F1FF3F1ED1E38E9BB21BB9E38F9BB212
:101AB000002B5CD023689A6812F0020FD7D0E28E18
:101AC00092B2002AD3D0002FD1D0226B1288DA60D4
:101AD000236B02332363E38E9BB2013B9BB2E3860D
:101AE0000027C4E7012384F85130032059E023681C
:101AF0009A6812F0010F0ED0E28F92B25AB1DA68F2
:101B0000A36B1A70A36B0133A363E38F9BB2013BFA
:101B10009BB2E3870127FFF793F8831BAB4202D305
:101B2000B5F1FF3F1ED1EDB1E38E9BB213B9E38F48
:101B30009BB2E3B123689A6812F0020FD7D0E28E0D
:101B400092B2002AD3D0002FD1D0226B12781A7310
:101B5000236B01332363E38E9BB2013B9BB2E3868D
:101B60000027C4E7012384F85130032019E03246EE
:101B700029462046FFF7BEFD70B9A36833B901932B
:101B80002368DA6801929B680193019B636DC3B976
:101B9000012384F8513004E020236365012000E034
:101BA0000220002384F8503003B0BDE8F083022007
:101BB000F7E70220F5E70120F3E70120F1E7012034
:101BC000EFE70120EDE70220EEE7000010B582B05C
:101BD0000D4B1B68ADF804301B0C8DF806300B4C18
:101BE00000224FF480512046FFF754FC01230322CA
:101BF00001A90748FFF7EBFD01224FF48051204671
:101C0000FFF748FC02B010BDBC1D0008000C0140ED
:101C10003400002010B582B04FF0FF3301930B4C1D
:101C200000224FF480512046FFF734FC01230422A8
:101C30000DEB02010648FFF7CAFD01224FF4805167
:101C40002046FFF727FC02B010BD00BF000C01408A
:101C50003400002010B582B011490968ADF80410B5
:101C6000090C8DF80610D201D2B21A4452B242F0D9
:101C700010028DF806200B4C00224FF480512046B4
:101C8000FFF708FC0123032201A90748FFF79FFD86
:101C900001224FF480512046FFF7FCFB02B010BD3B
:101CA000E81D0008000C01403400002030B585B06C
:101CB00058230393002202920F4C4FF48051204688
:101CC000FFF7E8FB01250095042302AA03A90B48AE
:101CD000FFF759FE2A464FF480512046FFF7DAFB02
:101CE0009DF808009DF809301B0243EA00439DF867
:101CF0000A00184305B030BD000C0140340000203C
:101D0000FFF72CFC0B480C490C4A002302E0D45886
:101D1000C4500433C4188C42F9D3094A094C002337
:101D200001E013600432A242FBD300F00FF8FEF78B
:101D300063FE7047000000200C000020F41D000826
:101D40000C0000208C000020FEE7000070B500268B
:101D50000C4D0D4C641BA410A64209D100F022F8D2
:101D600000260A4D0A4C641BA410A64205D170BD82
:101D700055F8043B98470136EEE755F8043B984781
:101D80000136F2E7EC1D0008EC1D0008EC1D000810
:101D9000F01D000803460244934200D1704703F847
:101DA000011BF9E7F8B500BFF8BC08BC9E467047B8
:0C1DB000F8B500BFF8BC08BC9E467047A8
:101DBC00500000000100000002030405060708099A
:101DCC000A0B0C0D0E0F1010010200000000000099
:101DDC0000000000010203040607080910070000B8
:041DEC0035010008B5
:041DF00011010008D5
:0C1DF40001000000100000000024F400BA
:0400000508001D01D1
:00000001FF
