:020000040800F2
:1000000000500020ED3E00080D1000080F10000801
:10001000111000081310000815100008000000005F
:1000200000000000000000000000000017100008A1
:1000300019100008000000001B1000081D10000827
:10004000353F0008353F0008353F0008353F0008C0
:10005000353F0008353F0008353F0008353F0008B0
:10006000353F000825100008353F0008353F0008DF
:10007000353F0008353F0008353F0008353F000890
:10008000353F0008353F0008353F0008353F000880
:10009000353F0008353F0008353F0008353F000870
:1000A000353F0008353F0008353F0008353F000860
:1000B000353F00083110000841100008353F0008A6
:1000C000353F0008353F0008353F0008353F000840
:1000D000353F0008353F000851100008353F000843
:1000E00061100008353F0008353F0008000000009F
:1000F0000000000000000000000000000000000000
:0C01000000000000000000005FF808F1A3
:1001100010B5054C237833B9044B13B10448AFF341
:1001200000800123237010BDF800002000000000B3
:100130009441000808B5034B1BB103490348AFF3D2
:10014000008008BD00000000FC0000209441000871
:1001500081F0004102E000BF83F0004330B54FEA78
:1001600041044FEA430594EA050F08BF90EA020FE5
:100170001FBF54EA000C55EA020C7FEA645C7FEA78
:10018000655C00F0E2804FEA5454D4EB5555B8BF9B
:100190006D420CDD2C4480EA020281EA030382EA0C
:1001A000000083EA010180EA020281EA0303362D9E
:1001B00088BF30BD11F0004F4FEA01314FF4801C71
:1001C0004CEA113102D0404261EB410113F0004F83
:1001D0004FEA03334CEA133302D0524263EB43033A
:1001E00094EA050F00F0A780A4F10104D5F1200ED8
:1001F0000DDB02FA0EFC22FA05F2801841F1000133
:1002000003FA0EF2801843FA05F359410EE0A5F106
:1002100020050EF1200E012A03FA0EFC28BF4CF037
:10022000020C43FA05F3C01851EBE37101F00045ED
:1002300007D54FF0000EDCF1000C7EEB00006EEBFA
:100240000101B1F5801F1BD3B1F5001F0CD3490884
:100250005FEA30004FEA3C0C04F101044FEA4452DB
:1002600012F5800F80F09A80BCF1004F08BF5FEA62
:10027000500C50F1000041EB045141EA050130BD42
:100280005FEA4C0C404141EB0101013C28BFB1F554
:10029000801FE9D291F0000F04BF01460020B1FA9F
:1002A00081F308BF2033A3F10B03B3F120020CDA72
:1002B0000C3208DD02F1140CC2F10C0201FA0CF050
:1002C00021FA02F10CE002F11402D8BFC2F1200CB5
:1002D00001FA02F120FA0CFCDCBF41EA0C0190406B
:1002E000E41AA2BF01EB0451294330BD6FEA0404B4
:1002F0001F3C1CDA0C340EDC04F11404C4F120029F
:1003000020FA04F001FA02F340EA030021FA04F3B0
:1003100045EA030130BDC4F10C04C4F1200220FA07
:1003200002F001FA04F340EA0300294630BD21FA45
:1003300004F0294630BD94F0000F83F4801306BF0B
:1003400081F480110134013D4EE77FEA645C18BFFF
:100350007FEA655C29D094EA050F08BF90EA020F96
:1003600005D054EA000C04BF1946104630BD91EA8E
:10037000030F1EBF0021002030BD5FEA545C05D191
:100380004000494128BF41F0004130BD14F58004D0
:100390003CBF01F5801130BD01F0004545F0FE4144
:1003A00041F470014FF0000030BD7FEA645C1ABF79
:1003B000194610467FEA655C1CBF0B46024650EAB0
:1003C000013406BF52EA033591EA030F41F40021DC
:1003D00030BD00BF90F0000F04BF0021704730B562
:1003E0004FF4806404F132044FF000054FF0000137
:1003F00050E700BF90F0000F04BF0021704730B5F8
:100400004FF4806404F1320410F0004548BF4042CC
:100410004FF000013EE700BF42004FEAE2014FEA21
:1004200031014FEA02701FBF12F07F4393F07F4FFC
:1004300081F06051704732F07F4208BF704793F0FF
:100440007F4F04BF41F40021704730B54FF4607412
:1004500001F0004521F000411CE700BF50EA010215
:1004600008BF704730B54FF000050AE050EA0102BE
:1004700008BF704730B511F0004502D5404261EB2E
:1004800041014FF4806404F132045FEA915C3FF46F
:10049000D8AE4FF003025FEADC0C18BF03325FEA0C
:1004A000DC0C18BF033202EBDC02C2F1200300FABD
:1004B00003FC20FA02F001FA03FE40EA0E0021FAE2
:1004C00002F11444BDE600BF70B54FF0FF0C4CF4D0
:1004D000E06C1CEA11541DBF1CEA135594EA0C0F82
:1004E00095EA0C0F00F0DEF82C4481EA030621EABD
:1004F0004C5123EA4C5350EA013518BF52EA0335F8
:1005000041F4801143F4801338D0A0FB02CE4FF0A9
:100510000005E1FB02E506F00042E0FB03E54FF0D9
:100520000006E1FB03569CF0000F18BF4EF0010ED1
:10053000A4F1FF04B6F5007F64F5407404D25FEACD
:100540004E0E6D4146EB060642EAC62141EA555180
:100550004FEAC52040EA5E504FEACE2EB4F1FD0CC2
:1005600088BFBCF5E06F1ED8BEF1004F08BF5FEA40
:10057000500E50F1000041EB045170BD06F00046F2
:1005800046EA010140EA020081EA0301B4EB5C049F
:10059000C2BFD4EB0C0541EA045170BD41F4801197
:1005A0004FF0000E013C00F3AB8014F1360FDEBFBC
:1005B000002001F0004170BDC4F10004203C35DA98
:1005C0000C341BDC04F11404C4F1200500FA05F31B
:1005D00020FA04F001FA05F240EA020001F00042BC
:1005E00021F0004110EBD37021FA04F642EB060132
:1005F0005EEA430E08BF20EAD37070BDC4F10C045C
:10060000C4F1200500FA04F320FA05F001FA04F21F
:1006100040EA020001F0004110EBD37041F100010B
:100620005EEA430E08BF20EAD37070BDC4F1200516
:1006300000FA05F24EEA020E20FA04F301FA05F27E
:1006400043EA020321FA04F001F0004121FA04F226
:1006500020EA020000EBD3705EEA430E08BF20EAF6
:10066000D37070BD94F0000F0FD101F00046400030
:1006700041EB010111F4801F08BF013CF7D041EAB2
:10068000060195F0000F18BF704703F000465200B6
:1006900043EB030313F4801F08BF013DF7D043EA87
:1006A0000603704794EA0C0F0CEA135518BF95EA3D
:1006B0000C0F0CD050EA410618BF52EA4306D1D1C4
:1006C00081EA030101F000414FF0000070BD50EAE3
:1006D000410606BF1046194652EA430619D094EA6D
:1006E0000C0F02D150EA013613D195EA0C0F05D157
:1006F00052EA03361CBF104619460AD181EA0301AB
:1007000001F0004141F0FE4141F470014FF0000062
:1007100070BD41F0FE4141F4780170BD70B54FF0FD
:10072000FF0C4CF4E06C1CEA11541DBF1CEA13557D
:1007300094EA0C0F95EA0C0F00F0A7F8A4EB05045F
:1007400081EA030E52EA03354FEA013100F0888056
:100750004FEA03334FF0805545EA131343EA12631F
:100760004FEA022245EA111545EA10654FEA0026D4
:100770000EF000419D4208BF964244F1FD0404F58D
:10078000407402D25B084FEA3202B61A65EB0305E9
:100790005B084FEA32024FF480104FF4002CB6EBA6
:1007A000020E75EB030E22BFB61A754640EA0C0026
:1007B0005B084FEA3202B6EB020E75EB030E22BF66
:1007C000B61A754640EA5C005B084FEA3202B6EBA7
:1007D000020E75EB030E22BFB61A754640EA9C0066
:1007E0005B084FEA3202B6EB020E75EB030E22BF36
:1007F000B61A754640EADC0055EA060E18D04FEAF4
:10080000051545EA16754FEA06164FEAC30343EA93
:1008100052734FEAC2025FEA1C1CC0D111F4801F60
:100820000BD141EA00014FF000004FF0004CB6E759
:1008300011F4801F04BF01430020B4F1FD0C88BFF8
:10084000BCF5E06F3FF6AFAEB5EB030C04BFB6EB03
:10085000020C5FEA500C50F1000041EB045170BDF6
:100860000EF0004E4EEA113114EB5C04C2BFD4EB23
:100870000C0541EA045170BD41F480114FF0000EA7
:10088000013C90E645EA060E8DE60CEA135594EA23
:100890000C0F08BF95EA0C0F3FF43BAF94EA0C0F26
:1008A0000AD150EA01347FF434AF95EA0C0F7FF49B
:1008B00025AF104619462CE795EA0C0F06D152EAEF
:1008C00003353FF4FDAE1046194622E750EA4106D3
:1008D00018BF52EA43067FF4C5AE50EA41047FF4E4
:1008E0000DAF52EA43057FF4EBAE12E74FF0FF3C49
:1008F00006E000BF4FF0010C02E000BF4FF0010C1A
:100900004DF804CD4FEA410C7FEA6C5C4FEA430C92
:1009100018BF7FEA6C5C1BD001B050EA410C0CBFE1
:1009200052EA430C91EA030F02BF90EA020F002043
:10093000704710F1000F91EA030F58BF994208BFAA
:1009400090422CBFD8176FEAE37040F00100704767
:100950004FEA410C7FEA6C5C02D150EA013C07D1BE
:100960004FEA430C7FEA6C5CD6D152EA033CD3D009
:100970005DF8040B704700BF8446104662468C4603
:100980001946634600E000BF01B5FFF7B7FF002836
:1009900048BF10F1000F01BD4DF808EDFFF7F4FF5F
:1009A0000CBF012000205DF808FB00BF4DF808EDEA
:1009B000FFF7EAFF34BF012000205DF808FB00BF0D
:1009C0004DF808EDFFF7E0FF94BF012000205DF82F
:1009D00008FB00BF4DF808EDFFF7CEFF94BF0120E4
:1009E00000205DF808FB00BF4DF808EDFFF7C4FFDD
:1009F00034BF012000205DF808FB00BF4FEA410C26
:100A00007FEA6C5C02D150EA013C0AD14FEA430C08
:100A10007FEA6C5C02D152EA033C02D14FF0000045
:100A200070474FF0010070474FEA4102B2F1E043D6
:100A300024BFB3F5001CDCF1FE5C0DD901F0004CC5
:100A40004FEAC0024CEA5070B2F1004F40EB830015
:100A500008BF20F00100704711F0804F21D113F141
:100A60003872BCBF01F00040704741F480114FEA7A
:100A70005252C2F11802C2F1200C10FA0CF320FA03
:100A800002F018BF40F001004FEAC1234FEAD32320
:100A900003FA0CFC40EA0C0023FA02F34FEA43038A
:100AA000CCE77FEA625307D150EA01331EBF4FF013
:100AB000FE4040F44000704701F0004040F0FE402E
:100AC00040F40000704700BF4FF0FF0C1CEAD0520A
:100AD0001EBF1CEAD15392EA0C0F93EA0C0F6FD0A1
:100AE0001A4480EA010C400218BF5FEA41211ED07F
:100AF0004FF0006343EA501043EA5111A0FB01316B
:100B00000CF00040B1F5000F3EBF490041EAD3713F
:100B10005B0040EA010062F17F02FD2A1DD8B3F1BB
:100B2000004F40EBC25008BF20F00100704790F02A
:100B3000000F0CF0004C08BF49024CEA502040EA7C
:100B400051207F3AC2BFD2F1FF0340EAC250704742
:100B500040F400004FF00003013A5DDC12F1190F80
:100B6000DCBF00F000407047C2F10002410021FAF2
:100B700002F1C2F1200200FA02FC5FEA310040F10A
:100B8000000053EA4C0308BF20EADC70704792F083
:100B9000000F00F0004C02BF400010F4000F013ABB
:100BA000F9D040EA0C0093F0000F01F0004C02BFB6
:100BB000490011F4000F013BF9D041EA0C018FE725
:100BC0000CEAD15392EA0C0F18BF93EA0C0F0AD02B
:100BD00030F0004C18BF31F0004CD8D180EA010051
:100BE00000F00040704790F0000F17BF90F0004FEA
:100BF000084691F0000F91F0004F14D092EA0C0FCC
:100C000001D142020FD193EA0C0F03D14B0218BF5E
:100C1000084608D180EA010000F0004040F0FE40A4
:100C200040F40000704740F0FE4040F44000704740
:100C30004FF0FF0C1CEAD0521EBF1CEAD15392EABF
:100C40000C0F93EA0C0F69D0A2EB030280EA010CAF
:100C500049024FEA402037D04FF0805343EA111148
:100C600043EA10130CF000408B4238BF5B0042F1A6
:100C70007D024FF4000C8B4224BF5B1A40EA0C004B
:100C8000B3EB510F24BFA3EB510340EA5C00B3EB7D
:100C9000910F24BFA3EB910340EA9C00B3EBD10F6B
:100CA00024BFA3EBD10340EADC001B0118BF5FEABD
:100CB0001C1CE0D1FD2A3FF650AF8B4240EBC250E6
:100CC00008BF20F0010070470CF0004C4CEA5020A7
:100CD0007F32C2BFD2F1FF0340EAC250704740F4F6
:100CE00000004FF00003013A37E792F0000F00F0E8
:100CF000004C02BF400010F4000F013AF9D040EA66
:100D00000C0093F0000F01F0004C02BF490011F4F9
:100D1000000F013BF9D041EA0C0195E70CEAD153F1
:100D200092EA0C0F08D142027FF47DAF93EA0C0FD8
:100D30007FF470AF084676E793EA0C0F04D14B02BC
:100D40003FF44CAF08466EE730F0004C18BF31F06E
:100D5000004CCAD130F000427FF45CAF31F0004368
:100D60007FF43CAF5FE700BF72B6FEE700B591B01D
:100D70002822002106A803F017F90023019302930B
:100D8000039304930593012206924FF48033079353
:100D90000A9202220D920E934FF4C0130F9306A8ED
:100DA00000F0C6FD80B90F230193022102910023B8
:100DB00003934FF480620492059301A800F0EAFFC8
:100DC00020B911B05DF804FBFFF7CEFFFFF7CCFFB1
:100DD00000B583B000F05EFDFFF7C8FF00F098F8A3
:100DE00000F068F900F06CFA00F0FCF900F0C2F9CC
:100DF0003D4B00934FF4E1333C4A0121002002F0C7
:100E000067FE02F0C5FE02F0D5FE02F0C7F93220FF
:100E100000F064FD02F0B0F900231A4619461846A6
:100E200002F0CEF90221002002F0E3F902F056F9B7
:100E30002F4B1860FFF7CEFA00222E4BFFF78CF9EC
:100E400000222D4BFFF740FB04460D462B4B186844
:100E5000FFF7E2FA0022274BFFF736FB02460B466C
:100E600020462946FFF75AFCFFF7DEFD244B1860A9
:100E70002449FFF7DDFEFFF7CFFA02460B460020BC
:100E80002149FFF769F910A3D3E90023FFF71CFB01
:100E90000FA3D3E90023FFF761F903F08DF80EA348
:100EA000D3E90023FFF758F90DA3D3E90023FFF797
:100EB00035FCFFF7B9FD0146144B1860002002F025
:100EC000FFFFA0E7AFF30080000000E0AF60C33E8B
:100ED0000071EBC94C04F03E000000402602703F58
:100EE000000000E0AF60B3BEC00100200802002097
:100EF000180100200000604100409F4000000020D9
:100F00001401002000007A440000F03F1C01002082
:100F1000F0B589B000240494059406940794364BE8
:100F20009A6942F010029A619A6902F010020092E6
:100F3000009A9A6942F020029A619A6902F02002AE
:100F40000192019A9A6942F004029A619A6902F048
:100F500004020292029A9A6942F008029A619B691D
:100F600003F008030393039B244F01224FF4005125
:100F7000384601F0FDF8224E22464FF480513046AB
:100F800001F0F6F84FF400530493012505950694FB
:100F9000079504A9384600F0D9FF4FF48053049315
:100FA000059506940323079304A9304600F0CEFF6D
:100FB0004FF400630493134F0597069504A9124854
:100FC00000F0C4FF082304930597069504A9304652
:100FD00000F0BCFF22462146092001F061F90920FA
:100FE00001F096F922462946282001F059F92820D7
:100FF00001F09CF909B0F0BD001002400010014062
:10100000000C01400000211000080140FEE7FEE74F
:10101000FEE7FEE7FEE770477047704708B500F04F
:101020004BFC08BD08B5082001F0AAF808BD000077
:1010300008B5024800F021FA08BD00BF7801002081
:1010400008B5024800F019FA08BD00BFC001002031
:1010500008B5024801F09CFE08BD00BF0802002050
:1010600008B54FF4006001F08BF808BD82B00E4B5C
:101070009A6942F001029A619A6902F001020092B3
:10108000009ADA6942F08052DA61DB6903F080533A
:101090000193019B054A536823F0E06343F000731A
:1010A000536002B0704700BF0010024000000140D2
:1010B0007047000008B50F480F4B03604FF4827370
:1010C000436000238360C360022202610122426107
:1010D0004FF4007282610822C2610362436283623C
:1010E0000A23C36201F0C4F900B908BDFFF73CFE52
:1010F000FBE700BF200100200038004010B586B09B
:10110000002302930393049305930268174B9A42BA
:1011100001D006B010BD03F5EC33DA6942F4804229
:10112000DA61DA6902F480420092009A9A6942F028
:1011300008029A619B6903F008030193019B4FF435
:10114000204302930223039301230593084C02A931
:10115000204600F0FBFE4FF48043029300230393EC
:10116000049302A9204600F0F1FED2E700380040C7
:10117000000C014000B587B0002302930393049351
:101180000593009301931548154A026040F27F22AF
:101190004260836040F2CF72C2600361836100F0FD
:1011A00063FA90B94FF48053029302A90B4800F000
:1011B00093FA68B90023009301936946074800F049
:1011C0000BFB40B907B05DF804FBFFF7CDFDE9E785
:1011D000FFF7CAFDEEE7FFF7C7FDF3E77801002050
:1011E0000004004000B587B00023029303930493EA
:1011F0000593009301931448144A02603F22426011
:1012000083603122C2600361836100F02DFA90B9DE
:101210004FF48053029302A90B4800F05DFA68B9BD
:101220000023009301936946074800F0D5FA40B9BE
:1012300007B05DF804FBFFF797FDE9E7FFF794FDC2
:10124000EEE7FFF791FDF3E7C00100200008004042
:1012500000B583B00368174A934205D0164A9342FB
:1012600015D003B05DF804FB144BDA6942F00202BA
:10127000DA61DB6903F002030093009B0022012185
:101280001D2001F00DF81D2001F042F8E9E70B4B9D
:10129000DA6942F00402DA61DB6903F004030193C6
:1012A000019B002211461E2000F0FAFF1E2001F0D3
:1012B0002FF8D6E70004004000080040001002406C
:1012C00008B50A480A4B03604FF4E133436000233A
:1012D0008360C36003610C2242618361C36101F0DA
:1012E000C9FB00B908BDFFF73FFDFBE7080200207E
:1012F0000044004030B587B0002302930393049369
:10130000059302681B4B9A4201D007B030BD03F52C
:10131000E633DA6942F40032DA61DA6902F4003263
:101320000092009A9A6942F004029A619B6903F064
:1013300004030193019B04230293022303930323D9
:1013400005930D4D02A9284600F000FE08230293E4
:101350000024039404940DEB0301284600F0F6FDED
:1013600022462146262000F09BFF262000F0D0FFD9
:10137000CBE700BF004400400008014010B4036AFE
:10138000046A24F001040462846924F0F00C4CEA3D
:10139000021223F00A030B438261036210BC704700
:1013A00010B4036A046A24F010040462846924F40B
:1013B000704C4CEA023223F0A00343EA011382612D
:1013C000036210BC7047836823F070030B4343F043
:1013D000070383607047000090F83D30DBB2012BBB
:1013E00027D1022380F83D300268D36843F001031F
:1013F000D3600368114A934210D0B3F1804F0DD0EF
:10140000A2F59432934209D002F58062934205D04E
:101410001A6842F001021A60002070479A6802F0D0
:101420000702062A07D01A6842F001021A6000205B
:101430007047012070470020704700BF002C01401A
:101440000268D36823F00103D3600368196A41F28C
:101450001112114208D1196A40F24442114203D1DB
:101460001A6822F001021A60012380F83D30002042
:101470007047704770477047704710B5044603685F
:101480001A6912F0020F11D0DA6812F0020F0DD0B3
:101490006FF002021A610123037703689B6913F05E
:1014A000030F70D0FFF7E6FF0023237723681A6944
:1014B00012F0040F12D0DA6812F0040F0ED06FF0A1
:1014C00004021A610223237723689B6913F4407F87
:1014D0005FD02046FFF7CEFF0023237723681A69E9
:1014E00012F0080F12D0DA6812F0080F0ED06FF069
:1014F00008021A61042323772368DB6913F0030FC2
:101500004ED02046FFF7B6FF0023237723681A69E1
:1015100012F0100F12D0DA6812F0100F0ED06FF028
:1015200010021A61082323772368DB6913F4407FD4
:101530003DD02046FFF79EFF0023237723681A69DA
:1015400012F0010F03D0DA6812F0010F36D12368D0
:101550001A6912F0800F03D0DA6812F0800F34D1CC
:1015600023681A6912F0400F03D0DA6812F0400FB6
:1015700032D123681A6912F0200F03D0DA6812F012
:10158000200F30D110BDFFF774FF2046FFF773FF27
:101590008AE72046FFF76DFF2046FFF76CFF9BE7C9
:1015A0002046FFF766FF2046FFF765FFACE72046C1
:1015B000FFF75FFF2046FFF75EFFBDE76FF0010218
:1015C0001A61204602F0F0F8C1E76FF080021A615C
:1015D000204600F038F9C3E76FF040021A61204658
:1015E000FFF74AFFC5E76FF020021A61204600F0BE
:1015F00029F9C7E703681B4A90420AD0B0F1804F2F
:1016000007D0A2F59432904203D002F58062904256
:1016100003D123F070034A681343124A90420AD060
:10162000B0F1804F07D0A2F59432904203D002F57A
:101630008062904203D123F44073CA68134323F0BD
:1016400080034A69134303608B68C3620B6883623B
:10165000044B984202D00123436170470B69036336
:10166000F9E700BF002C014040B310B5044690F8E4
:101670003D30F3B1022384F83D30214651F8040B8C
:10168000FFF7B8FF012384F8463084F83E3084F831
:101690003F3084F8403084F8413084F8423084F898
:1016A000433084F8443084F8453084F83D300020DD
:1016B00010BD80F83C30FFF7CBFDDBE70120704721
:1016C00010B4846824F47F4C42EA03220A4342EABD
:1016D0000C02826010BC704790F83C30012B78D02F
:1016E00010B50446012380F83C30022380F83D30D9
:1016F0000268936823F47F4323F0770393600B68B9
:10170000602B4CD029D8402B54D00CD9502B22D14F
:10171000CA6849680068FFF731FE50212068FFF76A
:1017200052FE002005E0202B0DD009D9302B0AD025
:101730000120012384F83D30002384F83C3010BDA3
:101740000BB1102B05D119462068FFF73CFE002095
:10175000EFE70120EDE70120EBE7B3F5805F34D040
:10176000B3F5005F0CD1CB684A6889680068FFF761
:10177000A7FF2268936843F4804393600020D8E772
:10178000702B24D1CB684A6889680068FFF798FFFE
:101790002268936843F0770393600020C9E7CA6822
:1017A00049680068FFF7FCFD60212068FFF70BFE29
:1017B0000020BEE7CA6849680068FFF7DFFD4021E6
:1017C0002068FFF700FE0020B3E70020B1E701200A
:1017D000AFE702207047000090F83C30012B2CD07E
:1017E00010B4012380F83C30022380F83D300368B8
:1017F0005A689C6822F0700C0A6842EA0C025A602F
:1018000003680F4A93420AD0B3F1804F07D0A2F584
:101810009432934203D002F58062934204D124F0C3
:1018200080044A6814439C60012380F83D30002303
:1018300080F83C30184610BC70470220704700BF4B
:10184000002C01407047704710B504460E4B1878C5
:101850004FF47A73B3FBF0F30C4A1068B0FBF3F06B
:1018600000F076FD68B90F2C01D901200AE00022B2
:1018700021464FF0FF3000F013FD054B1C600020A7
:1018800000E0012010BD00BF08000020040000207F
:101890000C00002008B5074A136843F010031360DA
:1018A000032000F0EBFC0F20FFF7CEFFFFF7DEFB7D
:1018B000002008BD00200240034A1168034B1B783A
:1018C0000B441360704700BF500200200800002046
:1018D000014B1868704700BF5002002038B504461D
:1018E000FFF7F6FF0546B4F1FF3F02D0044B1B782B
:1018F0001C44FFF7EDFF401BA042FAD338BD00BFE8
:101900000800002082B0084B1B68084AA2FB032392
:101910005B0A00FB03F3019300BF019B5A1E019277
:10192000002BF9D102B0704704000020D34D6210A3
:10193000002800F0F18170B582B00446036813F00E
:10194000010F2CD0994B5B6803F00C03042B1DD0C6
:10195000964B5B6803F00C03082B12D06368B3F559
:10196000803F41D0002B55D103F1804303F5043370
:101970001A6822F480321A601A6822F480221A60EF
:1019800037E08A4B5B6813F4803FE7D0874B1B68D6
:1019900013F4003F03D06368002B00F0BF8123687D
:1019A00013F0020F75D0814B5B6813F00C0F5FD002
:1019B0007E4B5B6803F00C03082B54D02369002B8B
:1019C00000F08A807A4B01221A60FFF781FF0546FA
:1019D000764B1B6813F0020F75D1FFF779FF401BA0
:1019E0000228F5D903209EE1704A136843F480333E
:1019F0001360636843B3FFF76BFF05466B4B1B68CF
:101A000013F4003FCBD1FFF763FF401B6428F5D9E7
:101A1000032088E1B3F5A02F09D0644B1A6822F4A3
:101A200080321A601A6822F480221A60E1E703F11A
:101A30008043A3F53C331A6842F480221A601A6886
:101A400042F480321A60D4E7FFF742FF0546574B55
:101A50001B6813F4003FA2D0FFF73AFF401B642835
:101A6000F5D903205FE1514B5B6813F4803FA5D1AA
:101A70004E4B1B6813F0020F03D02369012B40F07B
:101A80004F814A4A136823F0F803616943EAC103AE
:101A90001360236813F0080F33D0A369002B5CD0C8
:101AA000434B0122C3F88024FFF712FF05463F4B4A
:101AB0005B6A13F0020F21D1FFF70AFF401B0228D7
:101AC000F5D903202FE1394A136823F0F80361693F
:101AD00043EAC1031360DCE7354B00221A60FFF7CD
:101AE000F7FE0546314B1B6813F0020FD1D0FFF70C
:101AF000EFFE401B0228F5D9032014E10120FFF777
:101B000001FF236813F0040F00F09680274BDB6978
:101B100013F0805F34D1254BDA6942F08052DA61EC
:101B2000DB6903F080530193019B0125214B1B6866
:101B300013F4807F26D0E368012B3DD0002B53D1D6
:101B400003F1804303F504331A6A22F001021A629A
:101B50001A6A22F004021A6233E0154B0022C3F81D
:101B60008024FFF7B5FE0546104B5B6A13F0020FA9
:101B7000C7D0FFF7ADFE401B0228F5D90320D2E005
:101B80000025D3E70B4A136843F480731360FFF713
:101B90009FFE0646074B1B6813F4807FCBD1FFF7EF
:101BA00097FE801B6428F5D90320BCE0001002409A
:101BB00000004242007000405F4A136A43F0010394
:101BC0001362E36833B3FFF783FE06465A4B1B6A82
:101BD00013F0020F2FD1FFF77BFE801B41F28833F9
:101BE0009842F3D903209EE0052B09D0524B1A6A84
:101BF00022F001021A621A6A22F004021A62E0E775
:101C00004D4B1A6A42F004021A621A6A42F001024B
:101C10001A62D6E7FFF75CFE0646474B1B6A13F0D5
:101C2000020F08D0FFF754FE801B41F28833984220
:101C3000F3D9032077E0E5B9E369002B72D03E4A7F
:101C4000526802F00C02082A56D0022B17D03B4BE8
:101C500000221A66FFF73CFE0446374B1B6813F060
:101C6000007F47D0FFF734FE001B0228F5D9032080
:101C700059E0314AD36923F08053D361DCE72F4B1D
:101C800000221A66FFF724FE05462B4B1B6813F053
:101C9000007F06D0FFF71CFE401B0228F5D9032069
:101CA00041E0236AB3F5803F1AD023494B6823F4FF
:101CB0007413226A606A024313434B601F4B012274
:101CC0001A66FFF705FE04461B4B1B6813F0007FE6
:101CD0000ED1FFF7FDFD001B0228F5D9032022E0FD
:101CE000154A536823F40033A1680B435360DCE7C3
:101CF000002018E0002016E0012B16D00E4B5B6888
:101D000003F48031226A914211D103F47013626AA4
:101D100093420ED1002006E001207047012002E02E
:101D2000012000E0002002B070BD0120FBE701208F
:101D3000F9E70120F7E700BF00100240000042422F
:101D40000F4B5B6803F00C02082A01D00D48704766
:101D5000C3F383420C49885C13F4803F0BD0084BDB
:101D60005B68C3F34043094AD35C064A02FB00F0B8
:101D7000B0FBF3F07047064B03FB00F0704700BF69
:101D80000010024000127A00CC410008DC4100083B
:101D900000093D00002800F0A08070B50D46044603
:101DA000524B1B6803F007038B420BD24F4A136858
:101DB00023F007030B431360136803F007038B4200
:101DC00040F08D80236813F0020F17D013F0040F3A
:101DD00004D0474A536843F4E0635360236813F028
:101DE000080F04D0424A536843F460535360404A9A
:101DF000536823F0F003A1680B435360236813F08A
:101E0000010F31D06368012B20D0022B25D0384A36
:101E1000126812F0020F64D035494A6822F00302BA
:101E200013434B60FFF754FD0646314B5B6803F0EC
:101E30000C036268B3EB820F16D0FFF749FD801BDD
:101E400041F288339842F0D9032045E0284A1268CD
:101E500012F4003FE0D101203EE0254A126812F062
:101E6000007FD9D1012037E0204B1B6803F0070326
:101E7000AB420AD91D4A136823F007032B431360B2
:101E8000136803F00703AB422DD1236813F0040F4E
:101E900006D0174A536823F4E063E1680B435360AC
:101EA000236813F0080F07D0114A536823F46053D6
:101EB000216943EAC1035360FFF742FF0C4B5B68A3
:101EC000C3F303130B4AD35CD8400B4B18600B4B86
:101ED0001868FFF7B9FC002070BD01207047012091
:101EE000FAE70120F8E70120F6E700BF00200240F2
:101EF00000100240B4410008040000200C00002043
:101F0000014B1868704700BF0400002008B5FFF7B8
:101F1000F7FF044B5B68C3F30223034AD35CD8404A
:101F200008BD00BF00100240C441000808B5FFF71B
:101F3000E7FF044B5B68C3F3C223034AD35CD8407A
:101F400008BD00BF00100240C441000870B582B057
:101F50000024A446A6E0804DAA4210D007D97F4DA8
:101F6000AA420CD005F58035AA4208D013E0A5F5A9
:101F70008015AA4203D005F57025AA4207D18A68C8
:101F8000002A58D0012A51D04361082403E0A5F566
:101F90008015AA42F3D0BEF1FF0F4ED80646BEF11F
:101FA000FF0F4CD84FEA8C0233680F25954023EA87
:101FB000050304FA02F2134333604B6813F0805FA9
:101FC0006ED0674B9A6942F001029A619B6903F0F7
:101FD00001030193019B4FEA9C02951C614B53F84E
:101FE00025600CF003039D000F23AB4026EA030697
:101FF0005D4B984229D003F58063984200F08E80B3
:1020000003F58063984200F08B8003F5806398426B
:1020100019D004231AE0CC68BDE7CC680434BAE7D1
:10202000CC680834B7E7CC680C34B4E70361082403
:10203000B1E70024AFE70424ADE7061DAFE7ACF13C
:1020400008029200B0E7032300E00023AB403343D3
:102050000232444D45F822304B6813F4801F61D0A2
:10206000424A936843EA0E0393604B6813F4001FDF
:102070005ED03E4AD36843EA0E03D3604B6813F444
:10208000003F5BD0394A536843EA0E0353604B6804
:1020900013F4803F58D0354A136843EA0E031360A7
:1020A0000CF1010C0A6832FA0CF353D0012303FA45
:1020B0000CF302EA030E33EA0202F1D14A68122A53
:1020C0003FF649AF122A3FF666AF01A555F822F058
:1020D0007F1F000817200008212000083320000877
:1020E000971F0008971F0008971F0008971F0008F8
:1020F000971F0008971F0008971F0008971F0008E8
:10210000971F0008971F0008971F0008971F0008D7
:10211000971F00081B20000827200008012395E7CF
:10212000022393E7114A936823EA0E0393609CE726
:102130000E4AD36823EA0E03D3609FE70B4A536825
:1021400023EA0E035360A2E7084A136823EA0E034A
:102150001360A5E702B070BD00002210000031102E
:10216000001002400000014000080140000401404E
:102170000AB10161704709040161704770470000AE
:1021800008B5054B5B69034200D108BD024B58619D
:10219000FFF7F4FFF9E700BF0004014090F8213099
:1021A000DBB2022B06D004238363002380F82030A7
:1021B000012070470268136823F00E031360026861
:1021C000136823F001031360036CC16B012202FA50
:1021D00003F34B6080F82120002380F8203018465C
:1021E0007047000008B590F82130DBB2022B03D015
:1021F00004238363012008BD0268136823F00E03E3
:1022000013600268136823F0010313600368194A1E
:10221000934214D0143293421FD0143293421ED0F2
:10222000143293421ED0143293421ED01432934281
:1022300002D04FF0807203E04FF4801200E00122E0
:102240000D4B5A60012380F82130002380F82030A4
:10225000436B6BB198470020CDE71022F0E74FF4B5
:102260008072EDE74FF48052EAE74FF48032E7E7FF
:102270000020C0E70800024000000240074AD3687F
:1022800023F4E0631B041B0C000200F4E060034332
:1022900043F0BF6343F40033D360704700ED00E0C8
:1022A00000B5194BDB68C3F30223C3F1070CBCF183
:1022B000040F28BF4FF0040C03F1040EBEF1060F0B
:1022C00018D9033B4FF0FF3E0EFA0CFC21EA0C013B
:1022D00099400EFA03F322EA0303194300280BDBAB
:1022E0000901C9B200F1604000F5614080F80013B7
:1022F0005DF804FB0023E5E700F00F000901C9B217
:10230000024B1954F4E700BF00ED00E014ED00E0CB
:10231000002807DB00F01F02400901239340024A16
:1023200042F82030704700BF00E100E000280CDBDD
:1023300000F01F024009012393402030034A42F875
:102340002030BFF34F8FBFF36F8F704700E100E085
:102350000138B0F1807F0BD24FF0E0235861054A7D
:10236000F02182F823100020986107221A6170473B
:102370000120704700ED00E02DE9F04782B00546EE
:10238000884617461E46FFF7A3FA0A9B1B1A03EB63
:102390000609FFF79DFA82462B4B1B68C3F3CB332C
:1023A00009FB03F301932B689C6838EA04030CBF14
:1023B0004FF0010C4FF0000CBC4540D0B6F1FF3F90
:1023C000F1D0FFF785FAA0EB0A0048450AD2B9F12F
:1023D000000F07D0019A02B14A46019B013B0193CD
:1023E0009146E0E72A68536823F0E00353606B6886
:1023F000B3F5827F0BD0AB6AB3F5005F14D0012335
:1024000085F85130002385F85030032018E0AB6880
:10241000B3F5004F02D0B3F5806FECD12A68136892
:1024200023F040031360E6E72A68136823F400539F
:1024300013602A68136843F400531360DFE7002039
:1024400002B0BDE8F08700BF0400002010B582B0E4
:1024500004460B46009200228021FFF78DFF08B949
:1024600002B010BD636D43F0200363650320F7E7FE
:10247000002856D010B50446436A33B94368B3F513
:10248000827F05D00023C36102E000230361436122
:102490000023A36294F85130002B3CD0022384F82F
:1024A00051302268136823F040031360636803F41B
:1024B0008273A26802F404421343E26802F40062E9
:1024C0001343226902F002021343626902F001021F
:1024D0001343A26902F400721343E26902F0380266
:1024E0001343226A02F080021343A26A02F40052EC
:1024F000216813430B60638B226803F0040353606D
:102500002268D36923F40063D3610020606501234E
:1025100084F8513010BD84F850302046FEF7EEFDAF
:10252000BCE7012070472DE9F04383B01D4690F8C9
:102530005030012B00F0D18004468846914601239B
:1025400080F85030FFF7C4F9074694F85160F6B2AE
:10255000012E40F0BA80B8F1000F00F0B780B9F159
:10256000000F00F0B380032384F85130002363652B
:10257000C4F83080A4F83490A4F83690A363A387FD
:10258000E38763642364A368B3F5004F1ED0236818
:102590001A6812F0400F03D11A6842F040021A6024
:1025A000E368B3F5006F1CD0636813B1B9F1010F94
:1025B00055D1226B236812781A73236B013323637E
:1025C000E38E9BB2013B9BB2E38648E0226813682E
:1025D00023F0400313602268136843F480431360C0
:1025E000D5E7636813B1B9F1010F15D1226B2368E8
:1025F0001288DA60236B02332363E38E9BB2013BC4
:102600009BB2E38608E0FFF763F9C01BA84202D340
:10261000B5F1FF3F15D1A5B1E38E9BB2002B3CD0A5
:1026200023689A6812F0020FEDD0226B1288DA60EC
:10263000236B02332363E38E9BB2013B9BB2E386A1
:10264000EAE7012384F8513003263FE0FFF740F921
:10265000C01BA84202D3B5F1FF3F19D1C5B1E38E2B
:102660009BB2D3B123689A6812F0020FEED0226BAE
:1026700012781A73236B01332363B4F836C01FFA40
:102680008CFC0CF1FF3C1FFA8CFCA4F836C0E6E78A
:10269000012384F85130032618E03A4629462046A3
:1026A000FFF7D4FE08B120236365A36833B9019313
:1026B0002368DA6801929B680193019B636D2BB9D3
:1026C000012384F85130002600E00226002384F81C
:1026D0005030304603B0BDE8F0830226F9E72DE91B
:1026E000F04383B01F460A9D90F85030012B00F054
:1026F0001681044688469146012380F85030FFF742
:10270000E7F8064694F85130DBB26268012B0AD034
:10271000B2F5827F40F0F080A268002A40F0F3809A
:10272000042B40F0F280B8F1000F00F0F080B9F116
:10273000000F00F0EE80002F00F0ED8094F8513093
:10274000DBB2042B02D0052384F8513000236365EB
:10275000C4F83890E787A787C4F83080E786A78653
:102760002364636423681A6812F0400F03D11A6867
:1027700042F040021A60E368B3F5006F11D063685D
:102780000BB1012F0BD1226B236812781A73236BC4
:1027900001332363E38E9BB2013B9BB2E3860127A7
:1027A0006EE063680BB1012F0BD1226B2368128896
:1027B000DA60236B02332363E38E9BB2013B9BB24F
:1027C000E38601271BE023689A6812F0010F0ED000
:1027D000E28F92B25AB1DA68A36B1A80A36B02330C
:1027E000A363E38F9BB2013B9BB2E3870127FFF713
:1027F0006FF8801BA84202D3B5F1FF3F1ED1E38ED4
:102800009BB21BB9E38F9BB2002B5CD023689A6804
:1028100012F0020FD7D0E28E92B2002AD3D0002F4E
:10282000D1D0226B1288DA60236B02332363E38EEC
:102830009BB2013B9BB2E3860027C4E7012384F8E7
:102840005130032059E023689A6812F0010F0ED02E
:10285000E28F92B25AB1DA68A36B1A70A36B01339C
:10286000A363E38F9BB2013B9BB2E3870127FFF792
:102870002FF8831BAB4202D3B5F1FF3F1ED1EDB160
:10288000E38E9BB213B9E38F9BB2E3B123689A68DE
:1028900012F0020FD7D0E28E92B2002AD3D0002FCE
:1028A000D1D0226B12781A73236B01332363E38E2A
:1028B0009BB2013B9BB2E3860027C4E7012384F867
:1028C0005130032019E0324629462046FFF7BEFD6D
:1028D00070B9A36833B901932368DA6801929B68E1
:1028E0000193019B636DC3B9012384F8513004E067
:1028F00020236365012000E00220002384F850308B
:1029000003B0BDE8F0830220F7E70220F5E70120DD
:10291000F3E70120F1E70120EFE70120EDE70220D6
:10292000EEE7026802F10C0353E8003F23F49073D2
:102930000C3242E800310029F3D1026802F114039D
:1029400053E8003F23F00103143242E8003100292C
:10295000F3D1036B012B05D0202380F842300023F4
:1029600003637047026802F10C0353E8003F23F051
:1029700010030C3242E800310029F3D1ECE790F863
:102980004130DBB2212B01D0022070478368B3F5C0
:10299000805F17D0036A5A1C02621A7803685A6073
:1029A000C38C9BB2013B9BB2C3844BB90268D36812
:1029B00023F08003D3600268D36843F04003D36000
:1029C000002070470369002BE4D1036A1B8802686A
:1029D000C3F308035360036A02330362E0E70000B5
:1029E00010B504460268136923F44053C1680B43D1
:1029F000136183680269134342691A430168CB6813
:102A000023F4B05323F00C031343CB6002685369E3
:102A100023F4407381690B4353610268134B9A425C
:102A200020D0FFF773FA024602EB820202EB820229
:102A300063689B00B2FBF3F20D48A0FB0231490929
:102A4000642303FB11231B013233A0FB03235B0927
:102A500003F0F00202EB011203F00F0321681344AC
:102A60008B6010BDFFF762FA0246DDE700380140D7
:102A70001F85EB5160B310B5044690F8413013B395
:102A8000242384F841302268D36823F40053D360B0
:102A90002046FFF7A5FF2268136923F490431361D2
:102AA0002268536923F02A0353612268D36843F4F0
:102AB0000053D36000206064202384F8413084F800
:102AC0004230606310BD80F84030FEF713FCD7E75A
:102AD0000120704790F84130DBB2202B10D189B132
:102AE00092B101628284C28400234364212280F86F
:102AF00041200168CA6842F08002CA6018467047E7
:102B000002207047012070470120704708B5016816
:102B1000CA6822F04002CA60202280F8412000F0FA
:102B200013FE002008BD704708B5406A0023C38526
:102B3000C384FFF7F8FF08BD7047000010B50446D6
:102B4000226802F10C0353E8003F23F0C0030C326B
:102B500042E800310029F3D123685B6913F0800F4C
:102B600020D0226802F1140353E8003F23F08003D1
:102B7000143242E800310029F3D1A36B4BB10E4A65
:102B80005A63A06BFFF72EFBA0B1A06B436B984775
:102B900010E00023E384202384F841302046FFF72F
:102BA000CBFF07E00023E384202384F84130204654
:102BB000FFF7C2FF002010BDBD2B000808B5406A1A
:102BC0000023C384202380F84130FFF7B5FF08BD00
:102BD0007047000010B50446226802F10C0353E868
:102BE000003F23F490730C3242E800310029F3D106
:102BF000226802F1140353E8003F23F0010314326A
:102C000042E800310029F3D1236B012B1CD023684B
:102C10005B6913F0400F2ED0226802F1140353E8D1
:102C2000003F23F04003143242E800310029F3D181
:102C3000E36BB3B1154A5A63E06BFFF7D3FA18B3ED
:102C4000E06B436B98471FE0226802F10C0353E8E6
:102C5000003F23F010030C3242E800310029F3D189
:102C6000D5E70023E385202284F842202363204611
:102C7000FFF7AEFF08E00023E385202284F842201E
:102C800023632046FFF7A4FF002010BD912C00080D
:102C900008B5406A0023C385202280F842200363E0
:102CA000FFF796FF08BD704790F84230DBB2222B49
:102CB00069D18368B3F5805F4FD0826AB3F5805FD6
:102CC00004D0002B56D10369002B53D103685B68F5
:102CD0001370836A01338362C38D9BB2013B9BB245
:102CE000C385002B51D100B583B00268D36823F0AF
:102CF0002003D3600268D36823F48073D360026832
:102D0000536923F001035361202380F842300023EC
:102D10004363036B012B33D100230363026802F189
:102D20000C0353E8003F23F010030C3242E800315B
:102D30000029F3D103681A6812F0100F06D00022A0
:102D400001921A6801925B680193019B818DFFF7E4
:102D5000AAFF002003B05DF804FB0269002AACD191
:102D6000826A03685B68C3F308031380836A0233D3
:102D70008362B1E703685B6803F07F031370A8E721
:102D800000F0CAFCE5E70220704700207047000011
:102D900030B583B0044602681368D068516913F0F7
:102DA0000F0505D113F0200F02D010F0200F19D11C
:102DB0002DB111F0010119D110F4907F16D1216BC2
:102DC00001297DD013F0800F03D010F0800F40F068
:102DD000188113F0400F03D010F0400F40F0158120
:102DE00003B030BD2046FFF75FFFF9E713F0010F96
:102DF00006D010F4807F03D0626C42F0010262645E
:102E000013F0040F04D019B1626C42F00202626444
:102E100013F0020F04D019B1626C42F00402626434
:102E200013F0080F07D010F0200F00D119B1626C19
:102E300042F008026264626C002AD1D013F0200FC5
:102E400002D010F0200F29D123685B6903F0400302
:102E5000626C12F0080F00D163B32046FFF761FDEA
:102E600023685B6913F0400F20D0226802F114033D
:102E700053E8003F23F04003143242E800310029B8
:102E8000F3D1E36B73B1634A5A63E06BFFF7AAF9BE
:102E90000028A5D0E06B436B9847A1E72046FFF7D9
:102EA00003FFD1E72046FFF73EFE99E72046FFF7F4
:102EB0003AFE95E72046FFF736FE002363648FE76E
:102EC00013F0100F3FF47EAF10F0100F3FF47AAF05
:102ED000002301931368019353680193019B536985
:102EE00013F0400F51D0E26B13685B689BB2002B6C
:102EF0003FF476AFA18D99427FF672AFE385936977
:102F0000202B37D0226802F10C0353E8003F23F452
:102F100080730C3242E800310029F3D1226802F1BB
:102F2000140353E8003F23F00103143242E8003158
:102F30000029F3D1226802F1140353E8003F23F083
:102F40004003143242E800310029F3D1202384F8F1
:102F5000423000232363226802F10C0353E8003F50
:102F600023F010030C3242E800310029F3D1E06B6A
:102F7000FFF714F902236363A18DE38D9BB2C91A95
:102F800089B22046FFF78FFE2AE7A18DE38D9BB221
:102F9000C91A89B2E38D9BB2002B3FF421AF0029FF
:102FA0003FF41EAF226802F10C0353E8003F23F404
:102FB00090730C3242E800300028F3D1226802F10D
:102FC000140353E8003F23F00103143242E80030B9
:102FD0000028F3D1202384F84230002323632268A1
:102FE00002F10C0353E8003F23F010030C3242E8D7
:102FF00000300028F3D1022363632046FFF753FE1D
:10300000EEE62046FFF7BBFCEAE62046FFF77EFD32
:10301000E6E600BF292B000881628285C285002375
:103020004364222380F84230036923B10268D368E5
:1030300043F48073D3600268536943F00103536122
:103040000268D36843F02003D3600020704708B5BE
:1030500090F84230DBB2202B08D149B10AB90120E7
:1030600008BD00230363FFF7D7FFF9E70220F7E766
:103070000120F5E708B52820FFF74AF9002300E012
:103080000133024A9342FBDD08BD00BFBF270900A0
:1030900000B583B00E4B1B68ADF804301B0C8DF8E7
:1030A000063040018DF805008901C9B211448DF840
:1030B000061000224FF480510648FFF759F801230B
:1030C000032201A90448FFF72EFA03B05DF804FBC0
:1030D000AC410008000C01402001002030B585B053
:1030E000082200210120FFF7D3FFFFF7C3FF582379
:1030F000039300220292104C4FF480512046FFF7B8
:1031000037F801250095042302AA03A90B48FFF70D
:10311000E6FA2A464FF480512046FFF729F89DF839
:1031200009009DF80A301B0243EA00439DF80B009A
:10313000184305B030BD00BF000C01402001002045
:1031400070B504460D460A4E00224FF480513046B9
:10315000FFF70EF801232A4621460648FFF7E3F958
:1031600001224FF480513046FFF702F870BD00BFD6
:10317000000C01402001002000B583B0064B5B68C5
:10318000ADF804301B0C8DF80630032101A8FFF7C1
:10319000D7FF03B05DF804FBAC41000800B583B075
:1031A000064B93E8030000908DF804100521684653
:1031B000FFF7C6FF03B05DF804FB00BFE041000865
:1031C00000B583B08001C0B20844D201D2B21A4423
:1031D00052B242F0100210238DF804308DF8050031
:1031E0008DF80620032101A8FFF7AAFF03B05DF8C0
:1031F00004FB00B583B028238DF804308DF805104A
:103200008000C0B208448DF80500022101A8FFF734
:1032100097FF03B05DF804FB38B50B88052B01D090
:10322000032038BD0C464378817841EA03210131FF
:1032300089B2C378027942EA0322531E9BB240F25C
:10324000CE7C634520D8002323800123037023888C
:103250000133238012F0070F10D0C2F3C7030133EC
:10326000DDB245702388013323800023023000F053
:103270008BFD30B923882B442380D2E7C2F3C705E6
:10328000EFE700F0E1F9CCE70320CAE70B88052B54
:1032900001D0032070474378817841EA032101314E
:1032A00089B20379F3B9C278531EDBB2FD2B1BD967
:1032B00000B583B000238DF80530FF2A0BD0002322
:1032C0008DF8043001231A4601A800F05DFD30B9E5
:1032D00003B05DF804FB01238DF80430F2E700F041
:1032E000B3F9F5E703207047032070470B88052BDF
:1032F0002DD910B50C464178837843EA0123013378
:1033000099B2C278037943EA022290F805E013F0FB
:10331000070F0ED0C2F3C70C0CF1010C5FFA8CFC46
:10332000531E9BB2B3F5F66F13D2F44504D00320BD
:1033300010BDC2F3C70CF3E70123063000F024FDF3
:1033400010B905232380F3E700F07EF9F0E70320AE
:1033500070470320ECE738B50B88052B01D003201C
:1033600038BD0C464378817841EA0321013189B2A6
:10337000C378027942EA0322531E9BB240F2CE7C0C
:1033800063451FD800232380022303702388013361
:10339000238012F0070F0FD0C2F3C7030133DDB251
:1033A0004570238801332380023000F04DFD30B991
:1033B00023882B442380D3E7C2F3C705F0E700F04E
:1033C00043F9CDE70320CBE708B50B88052B01D0E7
:1033D000032008BD4378817841EA032101310123AC
:1033E0001A4689B2033000F08FFC0028F1D000F0BB
:1033F0002BF9EEE70B88052B22D910B50C46417846
:10340000837843EA0123013399B2C378027942EA0F
:10341000032290F805C0531E9BB2772B12D853009D
:10342000DBB2634501D0032010BD0123063000F05C
:103430006BFC10B905232380F6E700F005F9F3E7EC
:10344000032070470320EFE738B50B88052B01D028
:10345000032038BD0C464378817841EA03210131CD
:1034600089B2C378057945EA03256B1E9BB27C2B94
:1034700001D90320EDE700232380844603220CF8C2
:10348000022B2288013222806A0042702288013297
:1034900022802A46604600F037FC20B9238803EBDF
:1034A00045052580D5E700F0CFF8D2E7F8B50B88C1
:1034B000092B45D904460D464378817841EA03211A
:1034C00001318EB2C378077947EA032743798179BE
:1034D00041EA0321013189B2C379027A42EA032227
:1034E000407A7B1E9BB27C2B2CD86AB3792A2DD8CC
:1034F000B0EB420F01D0032023E0012304F10A00C6
:1035000000F002FC034618B1D8B100F09DF818E0B5
:1035100028802046172200F8022B2A8801322A80B0
:103520007A0062702A8801322A803A46314600F0D9
:10353000EBFB0028E8D12B8803EB47072F80E3E75C
:103540000020F8BD0320FCE70320FAE70320F8E79A
:1035500038B50B88052B01D0032038BD0C464378C5
:10356000817841EA0321013189B2C378057945EABE
:1035700003256B1E9BB27B2B01D90320EDE70023B3
:1035800023800346042203F8022B22880132228082
:103590006A0042702288013222802A46184600F0D2
:1035A0008DFB20B9238803EB45052580D5E700F086
:1035B0004BF8D2E738B50D46054B1C882246054925
:1035C000013000F0E3FC01342C80002038BD00BF46
:1035D000740200205402002010B54FEAD10E01F011
:1035E000070403FA04F44FF0010C0CFA02F39BB247
:1035F000013B9BB201F0070103FA01F110F80E3014
:103600000EEB0C0210F802C043EA0C231BB223EAB3
:1036100001031BB2234300F80E30C3F30723835486
:1036200010BD4FEAD10C012393409BB2013B10F82F
:103630000C206044407842EA002001F00701084174
:1036400080B21840C0B27047012805D0072805D0C5
:1036500008B1042070477047022070470620704769
:10366000024B00221A700120704700BF7702002031
:103670000123034A1370034A10701846704700BFB5
:1036800077020020760200200346054A107830B108
:10369000044A12781A70024B00221A7001207047F7
:1036A0007702002076020020014B1860012070474D
:1036B0007C02002010B50C4650B1012209490A4B8A
:1036C0001868FFF7C4FC44B1084B1B68984710BD4D
:1036D000054B1868FFF77EFAF5E7034B1868FFF70C
:1036E0002DFAF4E7780200207C020020B8030020C5
:1036F00008B50A460146034B1868FFF7EBF90120AD
:1037000008BD00BF7C020020024B1B780370012023
:10371000704700BF7802002008B50268074B1B689D
:103720001B689A4200D008BD054B1B6898470122D0
:103730000449024B1868FFF78AFCF4E77C0200207A
:10374000B40300207802002008B50268044B1B680F
:103750001B689A4200D008BD024B1B689847FAE7E5
:103760007C020020B8030020024B1960024B188035
:1037700001207047840200208802002008B5044B15
:1037800000221A80034B1868FDF726FE08BD00BF13
:10379000800200208402002008B5024B1868FDF763
:1037A0004FFE08BD8402002008B50268084B9A420B
:1037B00000D008BD074A13889BB201339BB2138027
:1037C000054A12889342F4D3044B1B689847F0E7EC
:1037D000000800408002002088020020BC03002076
:1037E00072B6024A13680133136070478C020020DE
:1037F000034A1368013B136003B962B6704700BF08
:103800008C02002000B5FF2296460AE010F8013B2A
:103810005340084AD25C82EA0E02074911F803E0DD
:1038200061464B1E1FFA83FC0029EFD142EA0E20AD
:103830005DF804FBE8410008E842000870B50E4658
:1038400014461D46FFF7CCFF2A4621463046FFF7B7
:103850002BFF012804D00324FFF7CAFF204670BDC8
:10386000B4F5964F0BD864000748B0FBF4F0294636
:1038700080B2FFF779FF012803D00324ECE723206F
:10388000F5E70024E8E700BFA07F170008B5FFF7C1
:10389000A7FF0021044B19700120FFF70BFFFFF772
:1038A0006DFFFFF7A5FF08BD9002002008B5FFF7E8
:1038B00097FF00210846FFF7FDFEFFF76DFFFFF7BA
:1038C00097FF08BD70B506460D461446FFF788FF02
:1038D0000F4B1B889BB2032B04D80524FFF788FFEE
:1038E000204670BD0A4B198889B20A48FFF78AFF43
:1038F00058B9084A12F8013B3370054B1B889BB23C
:10390000033B23802A600024E8E70524E6E700BFA4
:1039100098030020980200202DE9F04106460C464D
:103920001546FFF75DFF1C4B1B78DBB2012B05D062
:103930000524FFF75DFF2046BDE8F081601E174BB0
:103940001860174F4FF00108A7F8008004F8016CC9
:103950003A8892B21544ADB23D80398889B2FFF7FA
:1039600051FF3B889BB203EB080292B23A80C2B28D
:103970000C49CA543B889BB203EB080292B23A80CE
:10398000C0F30720C854084B83F80080414600204C
:10399000FFF790FE0024CCE7900200209402002064
:1039A0009A030020980200209102002000B583B005
:1039B0000DF10700FFF7A8FE1C4B1B78DBB2032BB1
:1039C00005D8DFE803F0020B1D08FFF7D7FE002043
:1039D00003B05DF804FBFFF7D1FEF8E7144A0023BB
:1039E000138013889BB2591C89B211809DF807106F
:1039F000104AD1540D4B02221A70FFF7BFFEE6E7C2
:103A00000B4B1B889BB2FF2B0CD809490B889BB230
:103A10005A1C92B20A809DF80710064AD154FFF74B
:103A2000ADFED4E7014B03221A70F8E790020020A4
:103A3000980300209802002038B5144B1B7803F03F
:103A4000FF0423B1012C07D00024204638BD0021FB
:103A50000120FFF72FFEF8E70D4B1B889BB24BB1FF
:103A60000B4D298889B20B4B1868FFF741FE0024E3
:103A70002C80EAE70820FFF7FBFD04460021012027
:103A8000FFF718FE014B00221A70DEE791020020BA
:103A90009A0300209402002010B50C4B1B785BB1F8
:103AA00003F0FF02022A0CD00024FFF775FE074B3B
:103AB00001221A70204610BD0120FFF7D9FD0446EF
:103AC000F3E70220FFF7D4FD0446EEE79002002062
:103AD00038B50446084601F1FF3C5FFA8CFCBCF1A6
:103AE000F60F2CD811461A46174B18700CB1022548
:103AF00026E0164B164D1D60164B174D1D60174BDB
:103B0000174D1D60174B184D1D60184B00251D608B
:103B1000174B184D1D60184B184D1D60184B194D53
:103B20001D60049BFFF78AFE054648B9FFF798FD24
:103B300040B1154B1C70154B01221A7000E0022594
:103B4000284638BD0325FBE7C1030020AC03002055
:103B50008D380008B0030020AD380008A403002011
:103B600019390008A0030020C5380008A803002068
:103B7000B4030020AD390008B8030020393A00082A
:103B8000BC030020993A00089D030020100000208B
:103B900008B5064B1B78012B01D0062008BD044B4D
:103BA0001B6898470020014B1870F7E710000020B1
:103BB000AC03002030B583B0364B1C78002C63D1A9
:103BC0000DF10700FFF760FD012802D0204603B089
:103BD00030BD9DF80730022B14D0042BF6D12E4BAC
:103BE000186801782D4B19702D4B01221A70002393
:103BF0000F2B25DC2B4A12F833200AB3914217D041
:103C00000133F5E7284B1B68284A23492848984781
:103C100005460028DAD1264B1B78264A12789342B3
:103C200001D0002B32D10420FFF722FD2C46CDE736
:103C30001C4A02EBC3035B681C499847184B187079
:103C40001B4B1B7823B3164B1B789BB1174A0021E3
:103C5000118012490978104805684FF0010CA2F84C
:103C600000C041F0800129700068118801EB0C054B
:103C700015804354104B1B680C4A1288064909688A
:103C80000C4800789847A1E706249FE704469DE783
:103C90001C469BE710000020C4030020C003002046
:103CA0009C03002014000020A0030020CA03002071
:103CB000C8030020C1030020A403002010B4104B4F
:103CC0001C884B1E9BB299180A2917DC1B1B9BB240
:103CD0000FE00C4C34F813C04FEA1C2C014601F8DD
:103CE00002CB14F81340447001339BB2013A92B2F4
:103CF0000846002AEDD1002010BC70470120FBE7E8
:103D000004040020F003002010B51D4CB4F800C0DE
:103D1000013989B28C180A2C2FDCA1EB0C0189B275
:103D20009BB1012B25D0002028E0164C34F811E07F
:103D30004FEA1E2E84460CF802EB14F81140447032
:103D4000013189B2013A92B26046002AEDD118469B
:103D500014E084461CF8023B0A4C1B0224F8113084
:103D60004078034324F81130013189B2013A92B20C
:103D70006046002AEDD1002000E0012010BD00BF08
:103D8000EC030020D80300202DE9F84315461E4619
:103D9000D4082B4B1A88013989B24B190A2B4CDCF9
:103DA0000134891AC1F3CC0C01F00707A6B1012E2A
:103DB00034D0002042E00CF101091FFA89F9804655
:103DC000082239461F486044FFF72BFC08F8010B16
:103DD000013CA4B2CC464046002CECD105F00705CE
:103DE00010F8013CC5F10805AB40DBB200F8013C1E
:103DF0002B4100F8013C304620E00CF101081FFA8D
:103E000088F8064616F8013B082239460D486044FA
:103E1000FFF7E2FB013CA4B2C4463046012CECD8CB
:103E200015F0070201D1002008E003783946054863
:103E30006044FFF7D1FB002000E00120BDE8F883DB
:103E4000D2030020CC0300202DE9F0419046D50894
:103E5000194B1A884F1EBFB207EB08030A2B28DC48
:103E600004460135BF1AC7F3CC0307F007070CE07F
:103E70005E1CB6B20822394610481844FFF7D1FB41
:103E800004F8010B013DADB23346002DF0D108F02E
:103E9000070814F8013CC8F1080803FA08F3DBB27C
:103EA00004F8013C43FA08F804F8018C0020BDE84E
:103EB000F0810120FBE700BFD4030020D0030020E5
:103EC00082B00191074B01AA1A60BDF80420064B8D
:103ED00023F810200130BDF8062023F8102002B08E
:103EE000704700BF08040020F0030020FDF7E0F851
:103EF0000B480C490C4A002302E0D458C450043348
:103F0000C4188C42F9D3094A094C002301E013601C
:103F10000432A242FBD300F015F8FCF759FF7047BA
:103F200000000020F8000020F0430008F800002006
:103F30000C040020FEE70000014B1868704700BF2A
:103F40009400002070B500260C4D0D4C641BA4108D
:103F5000A64209D100F01EF900260A4D0A4C641B46
:103F6000A410A64205D170BD55F8043B9847013610
:103F7000EEE755F8043B98470136F2E7E8430008BE
:103F8000E8430008E8430008EC4300080A44914273
:103F900000F1FF3300D1704710B511F8014B914289
:103FA00003F8014FF9D110BD03460244934200D1FA
:103FB000704703F8011BF9E7F8B504460D4600F019
:103FC00023F8224606460F462B4620462946FCF794
:103FD00015FD30B92046294600220023FCF7E6FCF7
:103FE00010B930463946F8BDFFF7A6FF002200237E
:103FF0002121016010461946FCF790FB06460F464A
:1040000030463946F8BD00BF2DE9F843604E0546FD
:1040100036EA01020C4600F09E8000290B468446D9
:1040200054DD091562D0C3F31303C807A1F2FF37AB
:1040300043F4801304D45B0003EBDC734FEA4C0CB5
:1040400000264FEADC7202EB43034FF0160E4FF4EA
:10405000001234467F104FEA4C0CA118994202DC42
:104060005B1A8C1816445B00BEF1010E03EBDC7387
:104070004FEA52024FEA4C0CEFD1754620204FF028
:1040800000420AE043D04FEADC71013801EB430300
:104090004FEA4C0C4FEA520242D0A34202EB0E010F
:1040A000F0DD002901EB020E0ADBA0461B1B614577
:1040B00088BF03F1FF334446ACEB010C1544E2E743
:1040C000BEF1000FF1DB04F10108EFE721F000423F
:1040D000024336D000294CD14FEADC221346153971
:1040E0004FEA4C5C002AF7D0D6024CD400205B008B
:1040F000DD02044600F10100F9D51A4663460CFAC8
:1041000000FCC0F12000C340091B13438BE761454D
:10411000B9D8002901EB020ED2DB98460023CAE78A
:1041200053EA0C0311D16808731003F17F5303F5B0
:104130000013F20748BF40F0004003EB0759054663
:104140004C4628462146BDE8F883691C16BF681C0A
:1041500001364008E8E702460B46FCF7B5F92A4667
:104160002346FBF7FBFF05460C4628462146BDE8E3
:10417000F8830246FBF7F0FF02460B46FCF7CEFA47
:1041800005460C46DDE7634620204FF0FF34BAE7D2
:104190000000F07FF8B500BFF8BC08BC9E46704731
:0C41A000F8B500BFF8BC08BC9E46704794
:1041AC0008000000500000000000000000000000AB
:1041BC0001020304060708090000000001020304C1
:1041CC0002030405060708090A0B0C0D0E0F10104C
:1041DC000102000003FFFFFFFF00000000C181404F
:1041EC0001C0804101C0804100C1814001C08041BB
:1041FC0000C1814000C1814001C0804101C08041AB
:10420C0000C1814000C1814001C0804100C181409A
:10421C0001C0804101C0804100C1814001C080418A
:10422C0000C1814000C1814001C0804100C181407A
:10423C0001C0804101C0804100C1814000C181406A
:10424C0001C0804101C0804100C1814001C080415A
:10425C0000C1814000C1814001C0804101C080414A
:10426C0000C1814000C1814001C0804100C181403A
:10427C0001C0804101C0804100C1814000C181402A
:10428C0001C0804101C0804100C1814001C080411A
:10429C0000C1814000C1814001C0804100C181400A
:1042AC0001C0804101C0804100C1814001C08041FA
:1042BC0000C1814000C1814001C0804101C08041EA
:1042CC0000C1814000C1814001C0804100C18140DA
:1042DC0001C0804101C0804100C1814000C0C101CA
:1042EC00C30302C2C60607C705C5C404CC0C0DCD5A
:1042FC000FCFCE0E0ACACB0BC90908C8D81819D9CA
:10430C001BDBDA1A1EDEDF1FDD1D1CDC14D4D515F9
:10431C00D71716D6D21213D311D1D010F03031F1E9
:10432C0033F3F23236F6F737F53534F43CFCFD3D19
:10433C00FF3F3EFEFA3A3BFB39F9F83828E8E92909
:10434C00EB2B2AEAEE2E2FEF2DEDEC2CE42425E5B9
:10435C0027E7E62622E2E323E12120E0A06061A129
:10436C0063A3A26266A6A767A56564A46CACAD6DD9
:10437C00AF6F6EAEAA6A6BAB69A9A86878B8B97949
:10438C00BB7B7ABABE7E7FBF7DBDBC7CB47475B579
:10439C0077B7B67672B2B373B17170B05090915169
:1043AC009353529296565797559594549C5C5D9D99
:1043BC005F9F9E5E5A9A9B5B995958988848498989
:1043CC004B8B8A4A4E8E8F4F8D4D4C8C4484854539
:0C43DC008747468682424383418180402F
:0443E8003501000893
:0443EC0011010008B3
:1043F0000000803F0024F4000100000010000000D5
:104400000200000011000000B535000804000000A3
:104410005135000803000000493400081000000076
:10442000F533000806000000C9330008170000003B
:10443000AD3400080100000019320008050000003A
:104440008D3200080F000000ED320008020000006D
:1044500057330008000000000000000000000000CA
:10446000000000000000000000000000000000004C
:10447000000000000000000000000000000000003C
:104480000000000098000020000000000000000074
:10449000000000000000000000000000000000001C
:1044A000000000000000000000000000000000000C
:1044B00000000000000000000000000000000000FC
:1044C00000000000000000000000000000000000EC
:1044D00000000000000000000000000000000000DC
:0844E0000000000000000000D4
:0400000508003EEDC4
:00000001FF
